{
  "contractName": "sunychain",
  "abi": [
    {
      "constant": false,
      "inputs": [],
      "name": "buyArticle",
      "outputs": [],
      "payable": true,
      "stateMutability": "payable",
      "type": "function"
    },
    {
      "constant": true,
      "inputs": [],
      "name": "getArticle",
      "outputs": [
        {
          "name": "_seller",
          "type": "address"
        },
        {
          "name": "_buyer",
          "type": "address"
        },
        {
          "name": "_name",
          "type": "string"
        },
        {
          "name": "_description",
          "type": "string"
        },
        {
          "name": "_price",
          "type": "uint256"
        }
      ],
      "payable": false,
      "stateMutability": "view",
      "type": "function"
    },
    {
      "constant": false,
      "inputs": [
        {
          "name": "_name",
          "type": "string"
        },
        {
          "name": "_description",
          "type": "string"
        },
        {
          "name": "_price",
          "type": "uint256"
        }
      ],
      "name": "sellArticle",
      "outputs": [],
      "payable": false,
      "stateMutability": "nonpayable",
      "type": "function"
    },
    {
      "anonymous": false,
      "inputs": [
        {
          "indexed": true,
          "name": "_seller",
          "type": "address"
        },
        {
          "indexed": false,
          "name": "_name",
          "type": "string"
        },
        {
          "indexed": false,
          "name": "_price",
          "type": "uint256"
        }
      ],
      "name": "LogSellArticle",
      "type": "event"
    },
    {
      "anonymous": false,
      "inputs": [
        {
          "indexed": true,
          "name": "_seller",
          "type": "address"
        },
        {
          "indexed": true,
          "name": "_buyer",
          "type": "address"
        },
        {
          "indexed": false,
          "name": "_name",
          "type": "string"
        },
        {
          "indexed": false,
          "name": "_price",
          "type": "uint256"
        }
      ],
      "name": "LogBuyArticle",
      "type": "event"
    }
  ],
  "bytecode": "0x6060604052341561000f57600080fd5b61094e8061001e6000396000f300606060405260043610610057576000357c0100000000000000000000000000000000000000000000000000000000900463ffffffff168063a005db411461005c578063c37218a614610066578063d2609515146101cd575b600080fd5b610064610276565b005b341561007157600080fd5b610079610549565b604051808673ffffffffffffffffffffffffffffffffffffffff1673ffffffffffffffffffffffffffffffffffffffff1681526020018573ffffffffffffffffffffffffffffffffffffffff1673ffffffffffffffffffffffffffffffffffffffff1681526020018060200180602001848152602001838103835286818151815260200191508051906020019080838360005b8381101561012757808201518184015260208101905061010c565b50505050905090810190601f1680156101545780820380516001836020036101000a031916815260200191505b50838103825285818151815260200191508051906020019080838360005b8381101561018d578082015181840152602081019050610172565b50505050905090810190601f1680156101ba5780820380516001836020036101000a031916815260200191505b5097505050505050505060405180910390f35b34156101d857600080fd5b610274600480803590602001908201803590602001908080601f0160208091040260200160405190810160405280939291908181526020018383808284378201915050505050509190803590602001908201803590602001908080601f016020809104026020016040519081016040528093929190818152602001838380828437820191505050505050919080359060200190919050506106f3565b005b60008060009054906101000a900473ffffffffffffffffffffffffffffffffffffffff1673ffffffffffffffffffffffffffffffffffffffff16141515156102bd57600080fd5b6000600160009054906101000a900473ffffffffffffffffffffffffffffffffffffffff1673ffffffffffffffffffffffffffffffffffffffff1614151561030457600080fd5b6000809054906101000a900473ffffffffffffffffffffffffffffffffffffffff1673ffffffffffffffffffffffffffffffffffffffff163373ffffffffffffffffffffffffffffffffffffffff161415151561036057600080fd5b6004543414151561037057600080fd5b33600160006101000a81548173ffffffffffffffffffffffffffffffffffffffff021916908373ffffffffffffffffffffffffffffffffffffffff1602179055506000809054906101000a900473ffffffffffffffffffffffffffffffffffffffff1673ffffffffffffffffffffffffffffffffffffffff166108fc349081150290604051600060405180830381858888f19350505050151561041257600080fd5b600160009054906101000a900473ffffffffffffffffffffffffffffffffffffffff1673ffffffffffffffffffffffffffffffffffffffff166000809054906101000a900473ffffffffffffffffffffffffffffffffffffffff1673ffffffffffffffffffffffffffffffffffffffff167fdc1065e914cede092c40ba25091b608a250dbbc1b32914631531655c2b5b0081600260045460405180806020018381526020018281038252848181546001816001161561010002031660029004815260200191508054600181600116156101000203166002900480156105385780601f1061050d57610100808354040283529160200191610538565b820191906000526020600020905b81548152906001019060200180831161051b57829003601f168201915b5050935050505060405180910390a3565b600080610554610869565b61055c610869565b60008060009054906101000a900473ffffffffffffffffffffffffffffffffffffffff16600160009054906101000a900473ffffffffffffffffffffffffffffffffffffffff1660026003600454828054600181600116156101000203166002900480601f01602080910402602001604051908101604052809291908181526020018280546001816001161561010002031660029004801561063f5780601f106106145761010080835404028352916020019161063f565b820191906000526020600020905b81548152906001019060200180831161062257829003601f168201915b50505050509250818054600181600116156101000203166002900480601f0160208091040260200160405190810160405280929190818152602001828054600181600116156101000203166002900480156106db5780601f106106b0576101008083540402835291602001916106db565b820191906000526020600020905b8154815290600101906020018083116106be57829003601f168201915b50505050509150945094509450945094509091929394565b336000806101000a81548173ffffffffffffffffffffffffffffffffffffffff021916908373ffffffffffffffffffffffffffffffffffffffff160217905550826002908051906020019061074992919061087d565b50816003908051906020019061076092919061087d565b50806004819055506000809054906101000a900473ffffffffffffffffffffffffffffffffffffffff1673ffffffffffffffffffffffffffffffffffffffff167f02bce32b00112077eb590edcbfae020c674b22a31691eadef8ec7c17541e83cc600260045460405180806020018381526020018281038252848181546001816001161561010002031660029004815260200191508054600181600116156101000203166002900480156108555780601f1061082a57610100808354040283529160200191610855565b820191906000526020600020905b81548152906001019060200180831161083857829003601f168201915b5050935050505060405180910390a2505050565b602060405190810160405280600081525090565b828054600181600116156101000203166002900490600052602060002090601f016020900481019282601f106108be57805160ff19168380011785556108ec565b828001600101855582156108ec579182015b828111156108eb5782518255916020019190600101906108d0565b5b5090506108f991906108fd565b5090565b61091f91905b8082111561091b576000816000905550600101610903565b5090565b905600a165627a7a72305820b74942708be6629233e01856654fbe978b01a64b8ab6313ccf30879f40b3ae030029",
  "source": "pragma solidity ^0.4.18;\r\n\r\ncontract sunychain {\r\n  //state variables\r\n   address seller;\r\n   address buyer;\r\n   string name;\r\n   string description;\r\n   uint256 price;\r\n\r\n   // events\r\n   event LogSellArticle(\r\n     address indexed _seller,\r\n     string _name,\r\n     uint256 _price\r\n   );\r\n   event LogBuyArticle(\r\n     address indexed _seller,\r\n     address indexed _buyer,\r\n     string _name,\r\n     uint256 _price\r\n   );\r\n  // constructor\r\n  //    function sunychain() public {\r\n  //      sellArticle(\"Default article\", \"This is an article set by default\", 1000000000000000000);\r\n  //    }\r\n\r\n  // sell an article\r\n   function sellArticle(string _name, string _description, uint256 _price) public {\r\n     seller = msg.sender;\r\n     name = _name;\r\n     description = _description;\r\n     price = _price;\r\n\r\n     LogSellArticle(seller, name, price);\r\n   }\r\n\r\n   // get an article\r\n   function getArticle() public view returns (\r\n     address _seller,\r\n     address _buyer,\r\n     string _name,\r\n     string _description,\r\n     uint256 _price\r\n   ) {\r\n       return(seller, buyer, name, description, price);\r\n   }\r\n\r\n   // buy an article\r\n   function buyArticle() payable public {\r\n     // we check whether there is an article for sale\r\n     require(seller != 0x0);\r\n\r\n     // we check that the article has not been sold yet\r\n     require(buyer == 0X0);\r\n\r\n     // we don't allow the seller to buy his own article\r\n     require(msg.sender != seller);\r\n\r\n     // we check that the value sent corresponds to the price of the article\r\n     require(msg.value == price);\r\n\r\n     // keep buyer's information\r\n     buyer = msg.sender;\r\n\r\n     // the buyer can pay the seller\r\n     seller.transfer(msg.value);\r\n\r\n     // trigger the event\r\n     LogBuyArticle(seller, buyer, name, price);\r\n   }\r\n }\r\n",
  "sourcePath": "C:\\Users\\glads\\chainskills\\sunychain\\contracts\\sunychain.sol",
  "compiler": {
    "name": "solc",
    "version": "0.4.18+commit.9cf6e910.Emscripten.clang"
  },
  "schemaVersion": "1.0.1",
  "updatedAt": "2018-07-08T07:00:55.299Z"
}